:1000000001308A00D72900000A108A100A118207DD
:10001000C034F934A434B034993492348234F8348E
:10002000803490342D308400831300080319252870
:100030000630F800F701F70B1B28F80B1A287B3065
:10004000F700F70B2128800B182808002C08F8016E
:100050002B0203182E282B08F7003A28F701083046
:10006000AD00AB0DF70D2C0877020318F700F80D63
:10007000AD0B312808008316851483128518542887
:10008000A71854283230AD0012208316851483122D
:100090008518542801302507AA00AB000330AC00B6
:1000A00026207708A500A7148316851483128518C7
:1000B000A7108316051583120519772827197728A5
:1000C0003230AD00122083160515831205197728EA
:1000D000250B77280130A7062718702807107128EC
:1000E0000714281028088316870083122715831603
:1000F00005158312051927112508023C031DB12897
:1001000083168515831285199328A71993283230F1
:10011000AD00122083168515831285199328A60831
:10012000031DA603A7158316851583128519A7112C
:10013000831605168312051AAC28271AAC2832300C
:10014000AD001220831605168312051AAC28260866
:10015000623C0318A60A2716831605168312051A91
:1001600027128A110A120B2AAE01AD012D08073C95
:10017000031CDE28831605148312051CBA283130AF
:10018000F700F70BC128C428831605148312051C39
:10019000DC282D08073CF8000130F700F8080319A7
:1001A000D5280310F70DF80BD1287708AE04831675
:1001B000051483120518D728AD0AB6282E08F800B2
:1001C000080083160510831205101230AD001220AE
:1001D00083160510831205143130F700F70BEE2853
:1001E000F128831605140514831205181F29A6305B
:1001F000F700F70BF9280000831605148312051C7D
:100200001F29A630F700F70B03290000B420780857
:10021000A000B4207808A900B4207808AA00B4206F
:100220007808AB00B4207808AC00290820072A071A
:100230002B072C02031D1F290130F8002129003053
:10024000F8008A110A120C2A2008AB000A30AC0010
:1002500026207808AB000A30AC002620770804205E
:10026000F800A1002008AB000A30AC002620770877
:100270000420F800A2002608AB000A30AC002620BB
:100280007808AB000A30AC00262077080420F8007C
:10029000A3002608AB000A30AC0026207708042013
:1002A000F800A4008A110A120F2A2008183C031C27
:1002B0006D29A8102808831687008312871404303C
:1002C000A900FA30AD001220A90B6129A810280856
:1002D00083168700831287107329A81028088316B5
:1002E0008700831287108A110A12102AA508031D9D
:1002F0008A29260820020318842928102808831632
:100300008700831207148A2928102808831687007B
:10031000831207108A110A12112AA9012908133C15
:10032000031CD429831686018312220886008316B3
:100330008811831288110130AD00122083168811B4
:10034000831288158316860183122108860083167E
:100350000811831208110130AD0012208316081114
:1003600083120815831686018312240886008316DB
:100370008810831288100130AD0012208316881077
:10038000831288148316860183122308860083163D
:100390000810831208100130AD00122083160810D7
:1003A00083120814A90A8E298A110A12122A030834
:1003B0001F398300A001A5014630A6002710FF3099
:1003C000A800A7102711A7112712831603170908E1
:1003D000C039890003131F129F12003003178800D1
:1003E0008312870188018901831300308316031368
:1003F000860088000F308500003087008312A80037
:100400008316051083120514281028088316870008
:10041000831207103B28E128F808031D24295529D9
:0804200076298D290A2A6300E8
:04400E00F22FFF3F4F
:00000001FF
;PIC16F887
;CRC=C93F  CREATED="31-May-25 13:44"
